{
  "contractName": "maincontract",
  "abi": [
    {
      "inputs": [],
      "payable": false,
      "stateMutability": "nonpayable",
      "type": "constructor"
    },
    {
      "anonymous": false,
      "inputs": [
        {
          "indexed": false,
          "internalType": "uint256",
          "name": "_taskId",
          "type": "uint256"
        },
        {
          "indexed": false,
          "internalType": "string",
          "name": "_taskName",
          "type": "string"
        }
      ],
      "name": "TaskCreated",
      "type": "event"
    },
    {
      "anonymous": false,
      "inputs": [
        {
          "indexed": false,
          "internalType": "uint256",
          "name": "newContributor",
          "type": "uint256"
        },
        {
          "indexed": false,
          "internalType": "uint256",
          "name": "projectId",
          "type": "uint256"
        }
      ],
      "name": "contributorAdded",
      "type": "event"
    },
    {
      "anonymous": false,
      "inputs": [
        {
          "indexed": false,
          "internalType": "string",
          "name": "_name",
          "type": "string"
        }
      ],
      "name": "newProjectCreated",
      "type": "event"
    },
    {
      "anonymous": false,
      "inputs": [
        {
          "indexed": false,
          "internalType": "uint256",
          "name": "oldShares",
          "type": "uint256"
        },
        {
          "indexed": false,
          "internalType": "uint256",
          "name": "Newshares",
          "type": "uint256"
        },
        {
          "indexed": false,
          "internalType": "uint256",
          "name": "projectId",
          "type": "uint256"
        },
        {
          "indexed": false,
          "internalType": "uint256",
          "name": "contributorId",
          "type": "uint256"
        }
      ],
      "name": "sharesAllocated",
      "type": "event"
    },
    {
      "anonymous": false,
      "inputs": [
        {
          "indexed": false,
          "internalType": "string",
          "name": "_name",
          "type": "string"
        }
      ],
      "name": "userAdded",
      "type": "event"
    },
    {
      "constant": true,
      "inputs": [],
      "name": "currentUser",
      "outputs": [
        {
          "internalType": "address",
          "name": "",
          "type": "address"
        }
      ],
      "payable": false,
      "stateMutability": "view",
      "type": "function"
    },
    {
      "constant": true,
      "inputs": [
        {
          "internalType": "uint256",
          "name": "",
          "type": "uint256"
        }
      ],
      "name": "projects",
      "outputs": [
        {
          "internalType": "uint256",
          "name": "pId",
          "type": "uint256"
        },
        {
          "internalType": "string",
          "name": "pName",
          "type": "string"
        },
        {
          "internalType": "string",
          "name": "description",
          "type": "string"
        },
        {
          "internalType": "uint256",
          "name": "founder",
          "type": "uint256"
        },
        {
          "internalType": "uint256",
          "name": "members",
          "type": "uint256"
        },
        {
          "internalType": "uint256",
          "name": "tasks",
          "type": "uint256"
        },
        {
          "internalType": "string",
          "name": "tags",
          "type": "string"
        }
      ],
      "payable": false,
      "stateMutability": "view",
      "type": "function"
    },
    {
      "constant": true,
      "inputs": [],
      "name": "totalProjectCount",
      "outputs": [
        {
          "internalType": "uint256",
          "name": "",
          "type": "uint256"
        }
      ],
      "payable": false,
      "stateMutability": "view",
      "type": "function"
    },
    {
      "constant": true,
      "inputs": [],
      "name": "totalUserCount",
      "outputs": [
        {
          "internalType": "uint256",
          "name": "",
          "type": "uint256"
        }
      ],
      "payable": false,
      "stateMutability": "view",
      "type": "function"
    },
    {
      "constant": true,
      "inputs": [
        {
          "internalType": "address",
          "name": "",
          "type": "address"
        }
      ],
      "name": "userId",
      "outputs": [
        {
          "internalType": "uint256",
          "name": "",
          "type": "uint256"
        }
      ],
      "payable": false,
      "stateMutability": "view",
      "type": "function"
    },
    {
      "constant": true,
      "inputs": [
        {
          "internalType": "uint256",
          "name": "",
          "type": "uint256"
        }
      ],
      "name": "users",
      "outputs": [
        {
          "internalType": "uint256",
          "name": "cId",
          "type": "uint256"
        },
        {
          "internalType": "address",
          "name": "account",
          "type": "address"
        },
        {
          "internalType": "string",
          "name": "cName",
          "type": "string"
        }
      ],
      "payable": false,
      "stateMutability": "view",
      "type": "function"
    },
    {
      "constant": true,
      "inputs": [],
      "name": "userExist",
      "outputs": [
        {
          "internalType": "bool",
          "name": "",
          "type": "bool"
        }
      ],
      "payable": false,
      "stateMutability": "view",
      "type": "function"
    },
    {
      "constant": true,
      "inputs": [],
      "name": "getProjects",
      "outputs": [
        {
          "internalType": "uint256[]",
          "name": "",
          "type": "uint256[]"
        }
      ],
      "payable": false,
      "stateMutability": "view",
      "type": "function"
    },
    {
      "constant": true,
      "inputs": [],
      "name": "getProjectCount",
      "outputs": [
        {
          "internalType": "uint256",
          "name": "",
          "type": "uint256"
        }
      ],
      "payable": false,
      "stateMutability": "view",
      "type": "function"
    },
    {
      "constant": true,
      "inputs": [
        {
          "internalType": "uint256",
          "name": "projectId",
          "type": "uint256"
        },
        {
          "internalType": "uint256",
          "name": "i",
          "type": "uint256"
        }
      ],
      "name": "getContributor",
      "outputs": [
        {
          "internalType": "uint256",
          "name": "",
          "type": "uint256"
        }
      ],
      "payable": false,
      "stateMutability": "view",
      "type": "function"
    },
    {
      "constant": true,
      "inputs": [
        {
          "internalType": "uint256",
          "name": "projectId",
          "type": "uint256"
        },
        {
          "internalType": "uint256",
          "name": "i",
          "type": "uint256"
        }
      ],
      "name": "getTaskName",
      "outputs": [
        {
          "internalType": "string",
          "name": "",
          "type": "string"
        }
      ],
      "payable": false,
      "stateMutability": "view",
      "type": "function"
    },
    {
      "constant": true,
      "inputs": [
        {
          "internalType": "uint256",
          "name": "projectId",
          "type": "uint256"
        },
        {
          "internalType": "uint256",
          "name": "i",
          "type": "uint256"
        }
      ],
      "name": "getTaskDescription",
      "outputs": [
        {
          "internalType": "string",
          "name": "",
          "type": "string"
        }
      ],
      "payable": false,
      "stateMutability": "view",
      "type": "function"
    },
    {
      "constant": false,
      "inputs": [
        {
          "internalType": "string",
          "name": "_name",
          "type": "string"
        }
      ],
      "name": "adduseraccount",
      "outputs": [],
      "payable": false,
      "stateMutability": "nonpayable",
      "type": "function"
    },
    {
      "constant": false,
      "inputs": [
        {
          "internalType": "string",
          "name": "_name",
          "type": "string"
        },
        {
          "internalType": "string",
          "name": "description",
          "type": "string"
        },
        {
          "internalType": "string",
          "name": "_tags",
          "type": "string"
        }
      ],
      "name": "createProject",
      "outputs": [],
      "payable": false,
      "stateMutability": "nonpayable",
      "type": "function"
    },
    {
      "constant": false,
      "inputs": [
        {
          "internalType": "uint256",
          "name": "newContributor",
          "type": "uint256"
        },
        {
          "internalType": "uint256",
          "name": "projectId",
          "type": "uint256"
        }
      ],
      "name": "addNewContributor",
      "outputs": [],
      "payable": false,
      "stateMutability": "nonpayable",
      "type": "function"
    },
    {
      "constant": false,
      "inputs": [
        {
          "internalType": "uint256",
          "name": "Newshares",
          "type": "uint256"
        },
        {
          "internalType": "uint256",
          "name": "projectId",
          "type": "uint256"
        },
        {
          "internalType": "uint256",
          "name": "_contributorId",
          "type": "uint256"
        }
      ],
      "name": "allocateSharesTo",
      "outputs": [],
      "payable": false,
      "stateMutability": "nonpayable",
      "type": "function"
    },
    {
      "constant": false,
      "inputs": [
        {
          "internalType": "uint256",
          "name": "_projectId",
          "type": "uint256"
        },
        {
          "internalType": "string",
          "name": "_taskName",
          "type": "string"
        },
        {
          "internalType": "string",
          "name": "_description",
          "type": "string"
        }
      ],
      "name": "createTask",
      "outputs": [],
      "payable": false,
      "stateMutability": "nonpayable",
      "type": "function"
    }
  ],
  "bytecode": "0x608060405234801561001057600080fd5b5033600260006101000a81548173ffffffffffffffffffffffffffffffffffffffff021916908373ffffffffffffffffffffffffffffffffffffffff160217905550612472806100616000396000f3fe608060405234801561001057600080fd5b506004361061010b5760003560e01c80637edf8995116100a2578063b055d61f11610071578063b055d61f1461073b578063cf7be6ec146107ec578063d0b897a9146109d5578063dcc6012814610a90578063ee4be1e614610aef5761010b565b80637edf8995146104c25780638524ac98146104e457806392ee0334146106405780639c85f9891461068a5761010b565b80633bcff3b0116100de5780633bcff3b01461041c57806344a982e71461043a5780634bb86af0146104865780636a11eeb3146104a45761010b565b8063107046bd1461011057806322dba47e146102ab578063365b98b2146102e3578063376fe102146103c4575b600080fd5b61013c6004803603602081101561012657600080fd5b8101908080359060200190929190505050610b31565b6040518088815260200180602001806020018781526020018681526020018581526020018060200184810384528a818151815260200191508051906020019080838360005b8381101561019c578082015181840152602081019050610181565b50505050905090810190601f1680156101c95780820380516001836020036101000a031916815260200191505b50848103835289818151815260200191508051906020019080838360005b838110156102025780820151818401526020810190506101e7565b50505050905090810190601f16801561022f5780820380516001836020036101000a031916815260200191505b50848103825285818151815260200191508051906020019080838360005b8381101561026857808201518184015260208101905061024d565b50505050905090810190601f1680156102955780820380516001836020036101000a031916815260200191505b509a505050505050505050505060405180910390f35b6102e1600480360360408110156102c157600080fd5b810190808035906020019092919080359060200190929190505050610d48565b005b61030f600480360360208110156102f957600080fd5b8101908080359060200190929190505050610ef8565b604051808481526020018373ffffffffffffffffffffffffffffffffffffffff1673ffffffffffffffffffffffffffffffffffffffff16815260200180602001828103825283818151815260200191508051906020019080838360005b8381101561038757808201518184015260208101905061036c565b50505050905090810190601f1680156103b45780820380516001836020036101000a031916815260200191505b5094505050505060405180910390f35b610406600480360360208110156103da57600080fd5b81019080803573ffffffffffffffffffffffffffffffffffffffff169060200190929190505050610fe7565b6040518082815260200191505060405180910390f35b610424610fff565b6040518082815260200191505060405180910390f35b6104706004803603604081101561045057600080fd5b81019080803590602001909291908035906020019092919050505061106a565b6040518082815260200191505060405180910390f35b61048e6110a2565b6040518082815260200191505060405180910390f35b6104ac6110a8565b6040518082815260200191505060405180910390f35b6104ca6110ae565b604051808215151515815260200191505060405180910390f35b61063e600480360360608110156104fa57600080fd5b81019080803590602001909291908035906020019064010000000081111561052157600080fd5b82018360208201111561053357600080fd5b8035906020019184600183028401116401000000008311171561055557600080fd5b91908080601f016020809104026020016040519081016040528093929190818152602001838380828437600081840152601f19601f820116905080830192505050505050509192919290803590602001906401000000008111156105b857600080fd5b8201836020820111156105ca57600080fd5b803590602001918460018302840111640100000000831117156105ec57600080fd5b91908080601f016020809104026020016040519081016040528093929190818152602001838380828437600081840152601f19601f8201169050808301925050505050505091929192905050506110f8565b005b61064861132e565b604051808273ffffffffffffffffffffffffffffffffffffffff1673ffffffffffffffffffffffffffffffffffffffff16815260200191505060405180910390f35b6106c0600480360360408110156106a057600080fd5b810190808035906020019092919080359060200190929190505050611354565b6040518080602001828103825283818151815260200191508051906020019080838360005b838110156107005780820151818401526020810190506106e5565b50505050905090810190601f16801561072d5780820380516001836020036101000a031916815260200191505b509250505060405180910390f35b6107716004803603604081101561075157600080fd5b810190808035906020019092919080359060200190929190505050611424565b6040518080602001828103825283818151815260200191508051906020019080838360005b838110156107b1578082015181840152602081019050610796565b50505050905090810190601f1680156107de5780820380516001836020036101000a031916815260200191505b509250505060405180910390f35b6109d36004803603606081101561080257600080fd5b810190808035906020019064010000000081111561081f57600080fd5b82018360208201111561083157600080fd5b8035906020019184600183028401116401000000008311171561085357600080fd5b91908080601f016020809104026020016040519081016040528093929190818152602001838380828437600081840152601f19601f820116905080830192505050505050509192919290803590602001906401000000008111156108b657600080fd5b8201836020820111156108c857600080fd5b803590602001918460018302840111640100000000831117156108ea57600080fd5b91908080601f016020809104026020016040519081016040528093929190818152602001838380828437600081840152601f19601f8201169050808301925050505050505091929192908035906020019064010000000081111561094d57600080fd5b82018360208201111561095f57600080fd5b8035906020019184600183028401116401000000008311171561098157600080fd5b91908080601f016020809104026020016040519081016040528093929190818152602001838380828437600081840152601f19601f8201169050808301925050505050505091929192905050506114f4565b005b610a8e600480360360208110156109eb57600080fd5b8101908080359060200190640100000000811115610a0857600080fd5b820183602082011115610a1a57600080fd5b80359060200191846001830284011164010000000083111715610a3c57600080fd5b91908080601f016020809104026020016040519081016040528093929190818152602001838380828437600081840152601f19601f8201169050808301925050505050505091929192905050506118ad565b005b610a98611ba8565b6040518080602001828103825283818151815260200191508051906020019060200280838360005b83811015610adb578082015181840152602081019050610ac0565b505050509050019250505060405180910390f35b610b2f60048036036060811015610b0557600080fd5b81019080803590602001909291908035906020019092919080359060200190929190505050611c5e565b005b60038181548110610b3e57fe5b90600052602060002090602f0201600091509050806000015490806001018054600181600116156101000203166002900480601f016020809104026020016040519081016040528092919081815260200182805460018160011615610100020316600290048015610bf05780601f10610bc557610100808354040283529160200191610bf0565b820191906000526020600020905b815481529060010190602001808311610bd357829003601f168201915b505050505090806002018054600181600116156101000203166002900480601f016020809104026020016040519081016040528092919081815260200182805460018160011615610100020316600290048015610c8e5780601f10610c6357610100808354040283529160200191610c8e565b820191906000526020600020905b815481529060010190602001808311610c7157829003601f168201915b505050505090806003015490806004015490806005015490806006018054600181600116156101000203166002900480601f016020809104026020016040519081016040528092919081815260200182805460018160011615610100020316600290048015610d3e5780601f10610d1357610100808354040283529160200191610d3e565b820191906000526020600020905b815481529060010190602001808311610d2157829003601f168201915b5050505050905087565b600082118015610d5a57506001548211155b610dcc576040517f08c379a00000000000000000000000000000000000000000000000000000000081526004018080602001828103825260138152602001807f4e6f20737563682075736572206578697374210000000000000000000000000081525060200191505060405180910390fd5b60046001830381548110610ddc57fe5b9060005260206000209060040201600301819080600181540180825580915050906001820390600052602060002001600090919290919091505550600060036001830381548110610e2957fe5b90600052602060002090602f02016004016000815460010191905081905590508260036001840381548110610e5a57fe5b90600052602060002090602f020160070160018303600a8110610e7957fe5b0181905550600060036001840381548110610e9057fe5b90600052602060002090602f020160110160018303600a8110610eaf57fe5b01819055507fc0d57bc3eadbca406fc7b62cb346eccfbfefd6c8585554c5ccda631329138de88383604051808381526020018281526020019250505060405180910390a1505050565b60048181548110610f0557fe5b90600052602060002090600402016000915090508060000154908060010160009054906101000a900473ffffffffffffffffffffffffffffffffffffffff1690806002018054600181600116156101000203166002900480601f016020809104026020016040519081016040528092919081815260200182805460018160011615610100020316600290048015610fdd5780601f10610fb257610100808354040283529160200191610fdd565b820191906000526020600020905b815481529060010190602001808311610fc057829003601f168201915b5050505050905083565b60056020528060005260406000206000915090505481565b600060046001600560003373ffffffffffffffffffffffffffffffffffffffff1673ffffffffffffffffffffffffffffffffffffffff16815260200190815260200160002054038154811061105057fe5b906000526020600020906004020160030180549050905090565b60006003600184038154811061107c57fe5b90600052602060002090602f020160070182600a811061109857fe5b0154905092915050565b60015481565b60005481565b600080600560003373ffffffffffffffffffffffffffffffffffffffff1673ffffffffffffffffffffffffffffffffffffffff168152602001908152602001600020541415905090565b6000825111611152576040517f08c379a000000000000000000000000000000000000000000000000000000000815260040180806020018281038252602481526020018061241a6024913960400191505060405180910390fd5b60008151116111c9576040517f08c379a000000000000000000000000000000000000000000000000000000000815260040180806020018281038252601f8152602001807f6e616d652063616e206e6f7420626520616e20656d70747920737472696e670081525060200191505060405180910390fd5b6000600360018503815481106111db57fe5b90600052602060002090602f02016005016000815480929190600101919050559050826003600186038154811061120e57fe5b90600052602060002090602f0201601b0182600a811061122a57fe5b01908051906020019061123e929190612031565b50816003600186038154811061125057fe5b90600052602060002090602f020160250182600a811061126c57fe5b019080519060200190611280929190612031565b507fa5ed9e6226c584326505694539c95cb0e3238ae09bcda5a65c00bbfdab1c666260018201846040518083815260200180602001828103825283818151815260200191508051906020019080838360005b838110156112ed5780820151818401526020810190506112d2565b50505050905090810190601f16801561131a5780820380516001836020036101000a031916815260200191505b50935050505060405180910390a150505050565b600260009054906101000a900473ffffffffffffffffffffffffffffffffffffffff1681565b60606003600184038154811061136657fe5b90600052602060002090602f0201601b0182600a811061138257fe5b018054600181600116156101000203166002900480601f0160208091040260200160405190810160405280929190818152602001828054600181600116156101000203166002900480156114175780601f106113ec57610100808354040283529160200191611417565b820191906000526020600020905b8154815290600101906020018083116113fa57829003601f168201915b5050505050905092915050565b60606003600184038154811061143657fe5b90600052602060002090602f020160250182600a811061145257fe5b018054600181600116156101000203166002900480601f0160208091040260200160405190810160405280929190818152602001828054600181600116156101000203166002900480156114e75780601f106114bc576101008083540402835291602001916114e7565b820191906000526020600020905b8154815290600101906020018083116114ca57829003601f168201915b5050505050905092915050565b600083511161154e576040517f08c379a00000000000000000000000000000000000000000000000000000000081526004018080602001828103825260278152602001806123c96027913960400191505060405180910390fd5b60008081548092919060010191905055506115676120b1565b80608001805180919060010181525050600054816000018181525050838160200181905250818160c00181905250828160400181905250600560003373ffffffffffffffffffffffffffffffffffffffff1673ffffffffffffffffffffffffffffffffffffffff16815260200190815260200160002054816060018181525050600560003373ffffffffffffffffffffffffffffffffffffffff1673ffffffffffffffffffffffffffffffffffffffff168152602001908152602001600020548160e001516001836080015103600a811061163e57fe5b60200201818152505060648161010001516001836080015103600a811061166157fe5b6020020181815250506003819080600181540180825580915050906001820390600052602060002090602f0201600090919290919091506000820151816000015560208201518160010190805190602001906116be929190612123565b5060408201518160020190805190602001906116db929190612123565b50606082015181600301556080820151816004015560a0820151816005015560c0820151816006019080519060200190611716929190612123565b5060e08201518160070190600a61172e9291906121a3565b506101008201518160110190600a6117479291906121a3565b5061012082015181601b0190600a6117609291906121e3565b506101408201518160250190600a6117799291906121e3565b5050505060046001600560003373ffffffffffffffffffffffffffffffffffffffff1673ffffffffffffffffffffffffffffffffffffffff1681526020019081526020016000205403815481106117cc57fe5b9060005260206000209060040201600301816000015190806001815401808255809150509060018203906000526020600020016000909192909190915055507f135660877f6b7c202efbf95ba02c837bffc92023be5ebca226685fd7edfb9d06846040518080602001828103825283818151815260200191508051906020019080838360005b8381101561186d578082015181840152602081019050611852565b50505050905090810190601f16801561189a5780820380516001836020036101000a031916815260200191505b509250505060405180910390a150505050565b6000600560003373ffffffffffffffffffffffffffffffffffffffff1673ffffffffffffffffffffffffffffffffffffffff1681526020019081526020016000205414611962576040517f08c379a000000000000000000000000000000000000000000000000000000000815260040180806020018281038252601c8152602001807f75736572206163636f756e7420616c726561647920657869737473210000000081525060200191505060405180910390fd5b600160008154809291906001019190505550600154600560003373ffffffffffffffffffffffffffffffffffffffff1673ffffffffffffffffffffffffffffffffffffffff168152602001908152602001600020819055506119c2612236565b81816040018190525033816020019073ffffffffffffffffffffffffffffffffffffffff16908173ffffffffffffffffffffffffffffffffffffffff1681525050600560003373ffffffffffffffffffffffffffffffffffffffff1673ffffffffffffffffffffffffffffffffffffffff16815260200190815260200160002054816000018181525050600481908060018154018082558091505090600182039060005260206000209060040201600090919290919091506000820151816000015560208201518160010160006101000a81548173ffffffffffffffffffffffffffffffffffffffff021916908373ffffffffffffffffffffffffffffffffffffffff1602179055506040820151816002019080519060200190611ae7929190612123565b506060820151816003019080519060200190611b04929190612274565b505050507fc92ebe1db27d1ca2d78f5625acd726ddc2999860ccf00ecfed1c3d5a7ca7e52e826040518080602001828103825283818151815260200191508051906020019080838360005b83811015611b6a578082015181840152602081019050611b4f565b50505050905090810190601f168015611b975780820380516001836020036101000a031916815260200191505b509250505060405180910390a15050565b606060046001600560003373ffffffffffffffffffffffffffffffffffffffff1673ffffffffffffffffffffffffffffffffffffffff168152602001908152602001600020540381548110611bf957fe5b9060005260206000209060040201600301805480602002602001604051908101604052809291908181526020018280548015611c5457602002820191906000526020600020905b815481526020019060010190808311611c40575b5050505050905090565b600054821115611cd6576040517f08c379a000000000000000000000000000000000000000000000000000000000815260040180806020018281038252600f8152602001807f4e6f20737563682050726f6a656374000000000000000000000000000000000081525060200191505060405180910390fd5b600154811115611d4e576040517f08c379a000000000000000000000000000000000000000000000000000000000815260040180806020018281038252600c8152602001807f4e6f20737563682075736572000000000000000000000000000000000000000081525060200191505060405180910390fd5b600560003373ffffffffffffffffffffffffffffffffffffffff1673ffffffffffffffffffffffffffffffffffffffff1681526020019081526020016000205460038381548110611d9b57fe5b90600052602060002090602f02016003015414611e20576040517f08c379a00000000000000000000000000000000000000000000000000000000081526004018080602001828103825260188152602001807f596f7520617265206e6f742074686520666f756e64657221000000000000000081525060200191505060405180910390fd5b600080600090505b60036001850381548110611e3857fe5b906000526020600020905050600a811015611fdb578260036001860381548110611e5e57fe5b90600052602060002090602f020160070182600a8110611e7a57fe5b01541415611f4e5760036001850381548110611e9257fe5b90600052602060002090602f020160110181600a8110611eae57fe5b0154915081600003851015611f0e576040517f08c379a000000000000000000000000000000000000000000000000000000000815260040180806020018281038252602a8152602001806123f0602a913960400191505060405180910390fd5b8460036001860381548110611f1f57fe5b90600052602060002090602f020160110182600a8110611f3b57fe5b0160008282540192505081905550611fdb565b600160036001860381548110611f6057fe5b906000526020600020905050600a03811415611fce576000611fcd576040517f08c379a00000000000000000000000000000000000000000000000000000000081526004018080602001828103825260238152602001806123a66023913960400191505060405180910390fd5b5b8080600101915050611e28565b507f9439daf66e61546087040ab9c69b8c87f99d09c4210f175f12ef196ccfcc4322818585856040518085815260200184815260200183815260200182815260200194505050505060405180910390a150505050565b828054600181600116156101000203166002900490600052602060002090601f016020900481019282601f1061207257805160ff19168380011785556120a0565b828001600101855582156120a0579182015b8281111561209f578251825591602001919060010190612084565b5b5090506120ad91906122c1565b5090565b604051806101600160405280600081526020016060815260200160608152602001600081526020016000815260200160008152602001606081526020016120f66122e6565b81526020016121036122e6565b8152602001612110612309565b815260200161211d612309565b81525090565b828054600181600116156101000203166002900490600052602060002090601f016020900481019282601f1061216457805160ff1916838001178555612192565b82800160010185558215612192579182015b82811115612191578251825591602001919060010190612176565b5b50905061219f91906122c1565b5090565b82600a81019282156121d2579160200282015b828111156121d15782518255916020019190600101906121b6565b5b5090506121df91906122c1565b5090565b82600a8101928215612225579160200282015b82811115612224578251829080519060200190612214929190612123565b50916020019190600101906121f6565b5b5090506122329190612331565b5090565b604051806080016040528060008152602001600073ffffffffffffffffffffffffffffffffffffffff16815260200160608152602001606081525090565b8280548282559060005260206000209081019282156122b0579160200282015b828111156122af578251825591602001919060010190612294565b5b5090506122bd91906122c1565b5090565b6122e391905b808211156122df5760008160009055506001016122c7565b5090565b90565b604051806101400160405280600a90602082028038833980820191505090505090565b604051806101400160405280600a905b60608152602001906001900390816123195790505090565b61235a91905b80821115612356576000818161234d919061235d565b50600101612337565b5090565b90565b50805460018160011615610100020316600290046000825580601f1061238357506123a2565b601f0160209004906000526020600020908101906123a191906122c1565b5b5056fe4e6f207375636820436f6e7472696275746f7220696e20746869732070726f6a65637450726f6a656374206e616d652063616e206e6f7420626520616e20656d70747920737472696e67496e76616c696420736861726520616d6f756e7420666f72207468697320636f6e7472696275746f72217461736b206e616d652063616e206e6f7420626520616e20656d70747920737472696e67a265627a7a72315820055cd24860656c5688e4939e4a38e7f6fe060e907c108cbe26234f5ce0487e7264736f6c63430005100032",
  "source": "// SPDX-License-Identifier: MIT\r\npragma solidity ^0.5.16;\r\ncontract maincontract{\r\n    struct Project{\r\n        uint256 pId;\r\n        string pName;\r\n        string description;\r\n        uint256 founder;\r\n        uint256 members;\r\n        uint256 tasks;\r\n        string tags;\r\n        uint256[10] contributors;\r\n        uint256[10] shares;\r\n        string[10] taskName;\r\n        string[10] taskDescription;\r\n    }\r\n    struct User{\r\n        uint256 cId;\r\n        address account;\r\n        string cName;\r\n        uint256[] projectsInvolved;\r\n    }\r\n\r\n    uint256 public totalProjectCount;\r\n    uint256 public totalUserCount;\r\n    address public currentUser;\r\n\r\n    Project[] public projects;\r\n    User[] public users;\r\n\r\n    mapping(address => uint256) public userId;\r\n\r\n    event newProjectCreated(string _name);\r\n    event userAdded(string _name);\r\n    event contributorAdded(uint256 newContributor, uint256 projectId);\r\n    event sharesAllocated(uint256 oldShares, uint256 Newshares, uint256 projectId, uint256 contributorId);\r\n    event TaskCreated(uint256 _taskId, string _taskName);\r\n\r\n    constructor() public{\r\n        currentUser = msg.sender;\r\n    }\r\n\r\n    function userExist() public view returns(bool){\r\n        return userId[msg.sender] != 0;\r\n    }\r\n    \r\n    function getProjects() public view returns(uint256[] memory){\r\n        return users[userId[msg.sender]-1].projectsInvolved;\r\n    }\r\n    function getProjectCount() public view returns(uint256){\r\n        return users[userId[msg.sender]-1].projectsInvolved.length;\r\n    }\r\n\r\n    function getContributor(uint projectId, uint i) public view returns(uint256){\r\n        return projects[projectId-1].contributors[i];\r\n    }\r\n    function getTaskName(uint projectId, uint i) public view returns(string memory){\r\n        return projects[projectId-1].taskName[i];\r\n    }\r\n    function getTaskDescription(uint projectId, uint i) public view returns(string memory){\r\n        return projects[projectId-1].taskDescription[i];\r\n    }\r\n\r\n    function adduseraccount(string memory _name) public {\r\n        //require(bytes(_name).length>0,\"name can not be an empty string\");\r\n        require(userId[msg.sender]==0, \"user account already exists!\");\r\n        totalUserCount++;\r\n        userId[msg.sender] = totalUserCount;\r\n        User memory user;\r\n        user.cName = _name;\r\n        user.account = msg.sender;\r\n        user.cId = userId[msg.sender];\r\n        users.push(user);\r\n        emit userAdded(_name);\r\n    }\r\n\r\n    function createProject(string memory _name, string memory description, string memory _tags) public {\r\n        require(bytes(_name).length>0,\"Project name can not be an empty string\");\r\n        //require(bytes(description).length>0,\"description can not be an empty string\");\r\n        totalProjectCount++;\r\n        Project memory project;\r\n        project.members++;\r\n        project.pId = totalProjectCount;            //new ID\r\n        project.pName = _name;                      //name\r\n        project.tags = _tags;                       //tags\r\n        project.description = description;          //description\r\n        project.founder = userId[msg.sender];       //founder\r\n        project.contributors[project.members-1] = userId[msg.sender];\r\n        project.shares[project.members-1] = 100;\r\n        projects.push(project);\r\n        users[userId[msg.sender]-1].projectsInvolved.push(project.pId);\r\n        emit newProjectCreated(_name);\r\n    }\r\n\r\n    function addNewContributor(uint256 newContributor, uint256 projectId) public {\r\n        require(newContributor>0 &&  newContributor<=totalUserCount, \"No such user exist!\");\r\n        users[newContributor-1].projectsInvolved.push(projectId);\r\n        uint members = ++projects[projectId-1].members;\r\n        projects[projectId-1].contributors[members-1] = newContributor;\r\n        projects[projectId-1].shares[members-1] = 0;                            //shares\r\n        emit contributorAdded(newContributor, projectId);\r\n    }\r\n\r\n    function allocateSharesTo(uint256 Newshares, uint256 projectId, uint256 _contributorId) public {\r\n        require(projectId <= totalProjectCount, \"No such Project\");\r\n        require(_contributorId <= totalUserCount, \"No such user\");\r\n        require(projects[projectId].founder == userId[msg.sender], \"You are not the founder!\");\r\n        \r\n        uint oldshares;\r\n        for(uint i=0; i<projects[projectId-1].contributors.length; i++){\r\n            if(projects[projectId-1].contributors[i] == _contributorId){\r\n                oldshares = projects[projectId-1].shares[i];\r\n                require(Newshares >= -oldshares, \"Invalid share amount for this contributor!\");\r\n                projects[projectId-1].shares[i]+=Newshares;\r\n                break;\r\n            }\r\n            if(i==projects[projectId-1].contributors.length-1){\r\n                require(false,\"No such Contributor in this project\");\r\n            }\r\n        }\r\n        emit sharesAllocated(oldshares, Newshares, projectId, _contributorId);\r\n    }\r\n    \r\n    function createTask(uint256 _projectId, string memory _taskName, string memory _description) public {\r\n        require(bytes(_taskName).length>0,\"task name can not be an empty string\");\r\n        require(bytes(_description).length>0,\"name can not be an empty string\");\r\n        uint256 task = projects[_projectId-1].tasks++;\r\n        projects[_projectId-1].taskName[task] = _taskName;\r\n        projects[_projectId-1].taskDescription[task] = _description;\r\n        emit TaskCreated(task+1, _taskName);\r\n    }\r\n    \r\n    \r\n}",
  "sourcePath": "D:/ide_builds/blockchain/github/Project-Share-Management/ShareManager/contracts/maincontract.sol",
  "compiler": {
    "name": "solc",
    "version": "0.5.16+commit.9c3226ce.Emscripten.clang"
  },
  "schemaVersion": "3.3.4",
  "updatedAt": "2021-04-20T10:32:38.424Z",
  "networkType": "ethereum",
  "devdoc": {
    "methods": {}
  },
  "userdoc": {
    "methods": {}
  }
}