{
  "contractName": "maincontract",
  "abi": [
    {
      "inputs": [],
      "payable": false,
      "stateMutability": "nonpayable",
      "type": "constructor"
    },
    {
      "anonymous": false,
      "inputs": [
        {
          "indexed": false,
          "internalType": "uint256",
          "name": "newContributor",
          "type": "uint256"
        },
        {
          "indexed": false,
          "internalType": "uint256",
          "name": "projectId",
          "type": "uint256"
        }
      ],
      "name": "contributorAdded",
      "type": "event"
    },
    {
      "anonymous": false,
      "inputs": [
        {
          "indexed": false,
          "internalType": "string",
          "name": "_name",
          "type": "string"
        }
      ],
      "name": "newProjectCreated",
      "type": "event"
    },
    {
      "anonymous": false,
      "inputs": [
        {
          "indexed": false,
          "internalType": "uint256",
          "name": "oldShares",
          "type": "uint256"
        },
        {
          "indexed": false,
          "internalType": "uint256",
          "name": "Newshares",
          "type": "uint256"
        },
        {
          "indexed": false,
          "internalType": "uint256",
          "name": "projectId",
          "type": "uint256"
        },
        {
          "indexed": false,
          "internalType": "uint256",
          "name": "contributorId",
          "type": "uint256"
        }
      ],
      "name": "sharesAllocated",
      "type": "event"
    },
    {
      "anonymous": false,
      "inputs": [
        {
          "indexed": false,
          "internalType": "string",
          "name": "_name",
          "type": "string"
        }
      ],
      "name": "userAdded",
      "type": "event"
    },
    {
      "constant": true,
      "inputs": [],
      "name": "currentUser",
      "outputs": [
        {
          "internalType": "address",
          "name": "",
          "type": "address"
        }
      ],
      "payable": false,
      "stateMutability": "view",
      "type": "function"
    },
    {
      "constant": true,
      "inputs": [
        {
          "internalType": "uint256",
          "name": "",
          "type": "uint256"
        }
      ],
      "name": "projects",
      "outputs": [
        {
          "internalType": "uint256",
          "name": "pId",
          "type": "uint256"
        },
        {
          "internalType": "string",
          "name": "pName",
          "type": "string"
        },
        {
          "internalType": "string",
          "name": "description",
          "type": "string"
        },
        {
          "internalType": "uint256",
          "name": "founder",
          "type": "uint256"
        },
        {
          "internalType": "uint256",
          "name": "members",
          "type": "uint256"
        },
        {
          "internalType": "uint256",
          "name": "tasks",
          "type": "uint256"
        },
        {
          "internalType": "string",
          "name": "tags",
          "type": "string"
        }
      ],
      "payable": false,
      "stateMutability": "view",
      "type": "function"
    },
    {
      "constant": true,
      "inputs": [],
      "name": "totalProjectCount",
      "outputs": [
        {
          "internalType": "uint256",
          "name": "",
          "type": "uint256"
        }
      ],
      "payable": false,
      "stateMutability": "view",
      "type": "function"
    },
    {
      "constant": true,
      "inputs": [],
      "name": "totalUserCount",
      "outputs": [
        {
          "internalType": "uint256",
          "name": "",
          "type": "uint256"
        }
      ],
      "payable": false,
      "stateMutability": "view",
      "type": "function"
    },
    {
      "constant": true,
      "inputs": [
        {
          "internalType": "address",
          "name": "",
          "type": "address"
        }
      ],
      "name": "userId",
      "outputs": [
        {
          "internalType": "uint256",
          "name": "",
          "type": "uint256"
        }
      ],
      "payable": false,
      "stateMutability": "view",
      "type": "function"
    },
    {
      "constant": true,
      "inputs": [
        {
          "internalType": "uint256",
          "name": "",
          "type": "uint256"
        }
      ],
      "name": "users",
      "outputs": [
        {
          "internalType": "uint256",
          "name": "cId",
          "type": "uint256"
        },
        {
          "internalType": "address",
          "name": "account",
          "type": "address"
        },
        {
          "internalType": "string",
          "name": "cName",
          "type": "string"
        }
      ],
      "payable": false,
      "stateMutability": "view",
      "type": "function"
    },
    {
      "constant": true,
      "inputs": [],
      "name": "getProjects",
      "outputs": [
        {
          "internalType": "uint256[]",
          "name": "",
          "type": "uint256[]"
        }
      ],
      "payable": false,
      "stateMutability": "view",
      "type": "function"
    },
    {
      "constant": true,
      "inputs": [],
      "name": "getProjectCount",
      "outputs": [
        {
          "internalType": "uint256",
          "name": "",
          "type": "uint256"
        }
      ],
      "payable": false,
      "stateMutability": "view",
      "type": "function"
    },
    {
      "constant": false,
      "inputs": [
        {
          "internalType": "string",
          "name": "_name",
          "type": "string"
        }
      ],
      "name": "adduseraccount",
      "outputs": [],
      "payable": false,
      "stateMutability": "nonpayable",
      "type": "function"
    },
    {
      "constant": false,
      "inputs": [
        {
          "internalType": "string",
          "name": "_name",
          "type": "string"
        },
        {
          "internalType": "string",
          "name": "description",
          "type": "string"
        },
        {
          "internalType": "string",
          "name": "_tags",
          "type": "string"
        }
      ],
      "name": "createProject",
      "outputs": [],
      "payable": false,
      "stateMutability": "nonpayable",
      "type": "function"
    },
    {
      "constant": false,
      "inputs": [
        {
          "internalType": "uint256",
          "name": "newContributor",
          "type": "uint256"
        },
        {
          "internalType": "uint256",
          "name": "projectId",
          "type": "uint256"
        },
        {
          "internalType": "uint256",
          "name": "_share",
          "type": "uint256"
        }
      ],
      "name": "addNewContributor",
      "outputs": [],
      "payable": false,
      "stateMutability": "nonpayable",
      "type": "function"
    },
    {
      "constant": false,
      "inputs": [
        {
          "internalType": "uint256",
          "name": "Newshares",
          "type": "uint256"
        },
        {
          "internalType": "uint256",
          "name": "projectId",
          "type": "uint256"
        },
        {
          "internalType": "uint256",
          "name": "_contributorId",
          "type": "uint256"
        }
      ],
      "name": "allocateSharesTo",
      "outputs": [],
      "payable": false,
      "stateMutability": "nonpayable",
      "type": "function"
    }
  ],
  "bytecode": "0x608060405234801561001057600080fd5b5033600260006101000a81548173ffffffffffffffffffffffffffffffffffffffff021916908373ffffffffffffffffffffffffffffffffffffffff160217905550611bfb806100616000396000f3fe608060405234801561001057600080fd5b50600436106100b45760003560e01c806392ee03341161007157806392ee0334146103e7578063cf7be6ec14610431578063d0b897a91461061a578063dcc60128146106d5578063eb2cdd3f14610734578063ee4be1e614610776576100b4565b8063107046bd146100b9578063365b98b214610254578063376fe102146103355780633bcff3b01461038d5780634bb86af0146103ab5780636a11eeb3146103c9575b600080fd5b6100e5600480360360208110156100cf57600080fd5b81019080803590602001909291905050506107b8565b6040518088815260200180602001806020018781526020018681526020018581526020018060200184810384528a818151815260200191508051906020019080838360005b8381101561014557808201518184015260208101905061012a565b50505050905090810190601f1680156101725780820380516001836020036101000a031916815260200191505b50848103835289818151815260200191508051906020019080838360005b838110156101ab578082015181840152602081019050610190565b50505050905090810190601f1680156101d85780820380516001836020036101000a031916815260200191505b50848103825285818151815260200191508051906020019080838360005b838110156102115780820151818401526020810190506101f6565b50505050905090810190601f16801561023e5780820380516001836020036101000a031916815260200191505b509a505050505050505050505060405180910390f35b6102806004803603602081101561026a57600080fd5b81019080803590602001909291905050506109cf565b604051808481526020018373ffffffffffffffffffffffffffffffffffffffff1673ffffffffffffffffffffffffffffffffffffffff16815260200180602001828103825283818151815260200191508051906020019080838360005b838110156102f85780820151818401526020810190506102dd565b50505050905090810190601f1680156103255780820380516001836020036101000a031916815260200191505b5094505050505060405180910390f35b6103776004803603602081101561034b57600080fd5b81019080803573ffffffffffffffffffffffffffffffffffffffff169060200190929190505050610abe565b6040518082815260200191505060405180910390f35b610395610ad6565b6040518082815260200191505060405180910390f35b6103b3610b63565b6040518082815260200191505060405180910390f35b6103d1610b69565b6040518082815260200191505060405180910390f35b6103ef610b6f565b604051808273ffffffffffffffffffffffffffffffffffffffff1673ffffffffffffffffffffffffffffffffffffffff16815260200191505060405180910390f35b6106186004803603606081101561044757600080fd5b810190808035906020019064010000000081111561046457600080fd5b82018360208201111561047657600080fd5b8035906020019184600183028401116401000000008311171561049857600080fd5b91908080601f016020809104026020016040519081016040528093929190818152602001838380828437600081840152601f19601f820116905080830192505050505050509192919290803590602001906401000000008111156104fb57600080fd5b82018360208201111561050d57600080fd5b8035906020019184600183028401116401000000008311171561052f57600080fd5b91908080601f016020809104026020016040519081016040528093929190818152602001838380828437600081840152601f19601f8201169050808301925050505050505091929192908035906020019064010000000081111561059257600080fd5b8201836020820111156105a457600080fd5b803590602001918460018302840111640100000000831117156105c657600080fd5b91908080601f016020809104026020016040519081016040528093929190818152602001838380828437600081840152601f19601f820116905080830192505050505050509192919290505050610b95565b005b6106d36004803603602081101561063057600080fd5b810190808035906020019064010000000081111561064d57600080fd5b82018360208201111561065f57600080fd5b8035906020019184600183028401116401000000008311171561068157600080fd5b91908080601f016020809104026020016040519081016040528093929190818152602001838380828437600081840152601f19601f820116905080830192505050505050509192919290505050610f67565b005b6106dd611262565b6040518080602001828103825283818151815260200191508051906020019060200280838360005b83811015610720578082015181840152602081019050610705565b505050509050019250505060405180910390f35b6107746004803603606081101561074a57600080fd5b8101908080359060200190929190803590602001909291908035906020019092919050505061133a565b005b6107b66004803603606081101561078c57600080fd5b81019080803590602001909291908035906020019092919080359060200190929190505050611560565b005b600381815481106107c557fe5b9060005260206000209060390201600091509050806000015490806001018054600181600116156101000203166002900480601f0160208091040260200160405190810160405280929190818152602001828054600181600116156101000203166002900480156108775780601f1061084c57610100808354040283529160200191610877565b820191906000526020600020905b81548152906001019060200180831161085a57829003601f168201915b505050505090806002018054600181600116156101000203166002900480601f0160208091040260200160405190810160405280929190818152602001828054600181600116156101000203166002900480156109155780601f106108ea57610100808354040283529160200191610915565b820191906000526020600020905b8154815290600101906020018083116108f857829003601f168201915b505050505090806003015490806004015490806005015490806006018054600181600116156101000203166002900480601f0160208091040260200160405190810160405280929190818152602001828054600181600116156101000203166002900480156109c55780601f1061099a576101008083540402835291602001916109c5565b820191906000526020600020905b8154815290600101906020018083116109a857829003601f168201915b5050505050905087565b600481815481106109dc57fe5b90600052602060002090600402016000915090508060000154908060010160009054906101000a900473ffffffffffffffffffffffffffffffffffffffff1690806002018054600181600116156101000203166002900480601f016020809104026020016040519081016040528092919081815260200182805460018160011615610100020316600290048015610ab45780601f10610a8957610100808354040283529160200191610ab4565b820191906000526020600020905b815481529060010190602001808311610a9757829003601f168201915b5050505050905083565b60056020528060005260406000206000915090505481565b60006004600160056000600260009054906101000a900473ffffffffffffffffffffffffffffffffffffffff1673ffffffffffffffffffffffffffffffffffffffff1673ffffffffffffffffffffffffffffffffffffffff168152602001908152602001600020540381548110610b4957fe5b906000526020600020906004020160030180549050905090565b60015481565b60005481565b600260009054906101000a900473ffffffffffffffffffffffffffffffffffffffff1681565b6000835111610bef576040517f08c379a0000000000000000000000000000000000000000000000000000000008152600401808060200182810382526027815260200180611ba06027913960400191505060405180910390fd5b6000808154809291906001019190505550610c0861187b565b80608001805180919060010181525050600054816000018181525050838160200181905250818160c00181905250828160400181905250600560003373ffffffffffffffffffffffffffffffffffffffff1673ffffffffffffffffffffffffffffffffffffffff16815260200190815260200160002054816060018181525050600560003373ffffffffffffffffffffffffffffffffffffffff1673ffffffffffffffffffffffffffffffffffffffff168152602001908152602001600020548160e001516001836080015103600a8110610cdf57fe5b60200201818152505060648161010001516001836080015103600a8110610d0257fe5b60200201818152505060038190806001815401808255809150509060018203906000526020600020906039020160009091929091909150600082015181600001556020820151816001019080519060200190610d5f9291906118fa565b506040820151816002019080519060200190610d7c9291906118fa565b50606082015181600301556080820151816004015560a0820151816005015560c0820151816006019080519060200190610db79291906118fa565b5060e08201518160070190600a610dcf92919061197a565b506101008201518160110190600a610de892919061197a565b5061012082015181601b0190600a610e0192919061197a565b506101408201518160250190600a610e1a9291906119ba565b5061016082015181602f0190600a610e339291906119ba565b5050505060046001600560003373ffffffffffffffffffffffffffffffffffffffff1673ffffffffffffffffffffffffffffffffffffffff168152602001908152602001600020540381548110610e8657fe5b9060005260206000209060040201600301816000015190806001815401808255809150509060018203906000526020600020016000909192909190915055507f135660877f6b7c202efbf95ba02c837bffc92023be5ebca226685fd7edfb9d06846040518080602001828103825283818151815260200191508051906020019080838360005b83811015610f27578082015181840152602081019050610f0c565b50505050905090810190601f168015610f545780820380516001836020036101000a031916815260200191505b509250505060405180910390a150505050565b6000600560003373ffffffffffffffffffffffffffffffffffffffff1673ffffffffffffffffffffffffffffffffffffffff168152602001908152602001600020541461101c576040517f08c379a000000000000000000000000000000000000000000000000000000000815260040180806020018281038252601c8152602001807f75736572206163636f756e7420616c726561647920657869737473210000000081525060200191505060405180910390fd5b600160008154809291906001019190505550600154600560003373ffffffffffffffffffffffffffffffffffffffff1673ffffffffffffffffffffffffffffffffffffffff1681526020019081526020016000208190555061107c611a0d565b81816040018190525033816020019073ffffffffffffffffffffffffffffffffffffffff16908173ffffffffffffffffffffffffffffffffffffffff1681525050600560003373ffffffffffffffffffffffffffffffffffffffff1673ffffffffffffffffffffffffffffffffffffffff16815260200190815260200160002054816000018181525050600481908060018154018082558091505090600182039060005260206000209060040201600090919290919091506000820151816000015560208201518160010160006101000a81548173ffffffffffffffffffffffffffffffffffffffff021916908373ffffffffffffffffffffffffffffffffffffffff16021790555060408201518160020190805190602001906111a19291906118fa565b5060608201518160030190805190602001906111be929190611a4b565b505050507fc92ebe1db27d1ca2d78f5625acd726ddc2999860ccf00ecfed1c3d5a7ca7e52e826040518080602001828103825283818151815260200191508051906020019080838360005b83811015611224578082015181840152602081019050611209565b50505050905090810190601f1680156112515780820380516001836020036101000a031916815260200191505b509250505060405180910390a15050565b60606004600160056000600260009054906101000a900473ffffffffffffffffffffffffffffffffffffffff1673ffffffffffffffffffffffffffffffffffffffff1673ffffffffffffffffffffffffffffffffffffffff1681526020019081526020016000205403815481106112d557fe5b906000526020600020906004020160030180548060200260200160405190810160405280929190818152602001828054801561133057602002820191906000526020600020905b81548152602001906001019080831161131c575b5050505050905090565b60008311801561134c57506001548311155b6113be576040517f08c379a00000000000000000000000000000000000000000000000000000000081526004018080602001828103825260138152602001807f4e6f20737563682075736572206578697374210000000000000000000000000081525060200191505060405180910390fd5b60008111611434576040517f08c379a000000000000000000000000000000000000000000000000000000000815260040180806020018281038252601e8152602001807f4120636f6e7472696275746f72206d757374206861766520736861726573000081525060200191505060405180910390fd5b6004600184038154811061144457fe5b906000526020600020906004020160030182908060018154018082558091505090600182039060005260206000200160009091929091909150555060006003600184038154811061149157fe5b906000526020600020906039020160040160008154600101919050819055905083600360018503815481106114c257fe5b906000526020600020906039020160070160018303600a81106114e157fe5b018190555081600360018503815481106114f757fe5b906000526020600020906039020160110160018303600a811061151657fe5b01819055507fc0d57bc3eadbca406fc7b62cb346eccfbfefd6c8585554c5ccda631329138de88484604051808381526020018281526020019250505060405180910390a150505050565b600083116115d6576040517f08c379a000000000000000000000000000000000000000000000000000000000815260040180806020018281038252601e8152602001807f4120636f6e7472696275746f72206d757374206861766520736861726573000081525060200191505060405180910390fd5b60005482111561164e576040517f08c379a000000000000000000000000000000000000000000000000000000000815260040180806020018281038252600f8152602001807f4e6f20737563682050726f6a656374000000000000000000000000000000000081525060200191505060405180910390fd5b6001548111156116c6576040517f08c379a000000000000000000000000000000000000000000000000000000000815260040180806020018281038252600c8152602001807f4e6f20737563682075736572000000000000000000000000000000000000000081525060200191505060405180910390fd5b600080600090505b600360018503815481106116de57fe5b906000526020600020905050600a81101561182557826003600186038154811061170457fe5b906000526020600020906039020160070182600a811061172057fe5b01541415611798576003600185038154811061173857fe5b906000526020600020906039020160110181600a811061175457fe5b01549150846003600186038154811061176957fe5b906000526020600020906039020160110182600a811061178557fe5b0160008282540192505081905550611825565b6001600360018603815481106117aa57fe5b906000526020600020905050600a03811415611818576000611817576040517f08c379a0000000000000000000000000000000000000000000000000000000008152600401808060200182810382526023815260200180611b7d6023913960400191505060405180910390fd5b5b80806001019150506116ce565b507f9439daf66e61546087040ab9c69b8c87f99d09c4210f175f12ef196ccfcc4322818585856040518085815260200184815260200183815260200182815260200194505050505060405180910390a150505050565b604051806101800160405280600081526020016060815260200160608152602001600081526020016000815260200160008152602001606081526020016118c0611a98565b81526020016118cd611a98565b81526020016118da611a98565b81526020016118e7611abb565b81526020016118f4611abb565b81525090565b828054600181600116156101000203166002900490600052602060002090601f016020900481019282601f1061193b57805160ff1916838001178555611969565b82800160010185558215611969579182015b8281111561196857825182559160200191906001019061194d565b5b5090506119769190611ae3565b5090565b82600a81019282156119a9579160200282015b828111156119a857825182559160200191906001019061198d565b5b5090506119b69190611ae3565b5090565b82600a81019282156119fc579160200282015b828111156119fb5782518290805190602001906119eb9291906118fa565b50916020019190600101906119cd565b5b509050611a099190611b08565b5090565b604051806080016040528060008152602001600073ffffffffffffffffffffffffffffffffffffffff16815260200160608152602001606081525090565b828054828255906000526020600020908101928215611a87579160200282015b82811115611a86578251825591602001919060010190611a6b565b5b509050611a949190611ae3565b5090565b604051806101400160405280600a90602082028038833980820191505090505090565b604051806101400160405280600a905b6060815260200190600190039081611acb5790505090565b611b0591905b80821115611b01576000816000905550600101611ae9565b5090565b90565b611b3191905b80821115611b2d5760008181611b249190611b34565b50600101611b0e565b5090565b90565b50805460018160011615610100020316600290046000825580601f10611b5a5750611b79565b601f016020900490600052602060002090810190611b789190611ae3565b5b5056fe4e6f207375636820436f6e7472696275746f7220696e20746869732070726f6a65637450726f6a656374206e616d652063616e206e6f7420626520616e20656d70747920737472696e67a265627a7a723158201f87aebcc2fe252388d9abebc5cd74e8d0ff83f40e08a1911494ea29d7c5bed664736f6c63430005100032",
  "source": "// SPDX-License-Identifier: MIT\r\npragma solidity ^0.5.16;\r\ncontract maincontract{\r\n    struct Project{\r\n        uint256 pId;\r\n        string pName;\r\n        string description;\r\n        uint256 founder;\r\n        uint256 members;\r\n        uint256 tasks;\r\n        string tags;\r\n        uint256[10] contributors;\r\n        uint256[10] shares;\r\n        uint256[10] taskId;\r\n        string[10] taskName;\r\n        string[10] taskDescription;\r\n    }\r\n    struct User{\r\n        uint256 cId;\r\n        address account;\r\n        string cName;\r\n        uint256[] projectsInvolved;\r\n    }\r\n\r\n    uint256 public totalProjectCount;\r\n    uint256 public totalUserCount;\r\n    address public currentUser;\r\n\r\n    Project[] public projects;\r\n    User[] public users;\r\n\r\n    mapping(address => uint256) public userId;\r\n\r\n    event newProjectCreated(string _name);\r\n    event userAdded(string _name);\r\n    event contributorAdded(uint256 newContributor, uint256 projectId);\r\n    event sharesAllocated(uint256 oldShares, uint256 Newshares, uint256 projectId, uint256 contributorId);\r\n    // event TaskCreated(uint256 _taskId, string _taskName);\r\n\r\n    constructor() public{\r\n        currentUser = msg.sender;\r\n    }\r\n    \r\n    function getProjects() public view returns(uint256[] memory){\r\n        return users[userId[currentUser]-1].projectsInvolved;\r\n    }\r\n    function getProjectCount() public view returns(uint256){\r\n        return users[userId[currentUser]-1].projectsInvolved.length;\r\n    }\r\n\r\n    function adduseraccount(string memory _name) public {\r\n        //require(bytes(_name).length>0,\"name can not be an empty string\");\r\n        require(userId[msg.sender]==0, \"user account already exists!\");\r\n        totalUserCount++;\r\n        userId[msg.sender] = totalUserCount;\r\n        User memory user;\r\n        user.cName = _name;\r\n        user.account = msg.sender;\r\n        user.cId = userId[msg.sender];\r\n        users.push(user);\r\n        emit userAdded(_name);\r\n    }\r\n\r\n    function createProject(string memory _name, string memory description, string memory _tags) public {\r\n        require(bytes(_name).length>0,\"Project name can not be an empty string\");\r\n        //require(bytes(description).length>0,\"description can not be an empty string\");\r\n        totalProjectCount++;\r\n        Project memory project;\r\n        project.members++;\r\n        project.pId = totalProjectCount;            //new ID\r\n        project.pName = _name;                      //name\r\n        project.tags = _tags;                       //tags\r\n        project.description = description;          //description\r\n        project.founder = userId[msg.sender];       //founder\r\n        project.contributors[project.members-1] = userId[msg.sender];\r\n        project.shares[project.members-1] = 100;\r\n        projects.push(project);\r\n        users[userId[msg.sender]-1].projectsInvolved.push(project.pId);\r\n        emit newProjectCreated(_name);\r\n    }\r\n\r\n    function addNewContributor(uint256 newContributor, uint256 projectId, uint256 _share) public {\r\n        require(newContributor>0 &&  newContributor<=totalUserCount, \"No such user exist!\");\r\n        require(_share > 0, \"A contributor must have shares\");\r\n        users[newContributor-1].projectsInvolved.push(projectId);\r\n        uint members = ++projects[projectId-1].members;\r\n        projects[projectId-1].contributors[members-1] = newContributor;\r\n        projects[projectId-1].shares[members-1] = _share;                            //shares\r\n        emit contributorAdded(newContributor, projectId);\r\n    }\r\n\r\n    function allocateSharesTo(uint256 Newshares, uint256 projectId, uint256 _contributorId) public {\r\n        require(Newshares>0, \"A contributor must have shares\");\r\n        require(projectId <= totalProjectCount, \"No such Project\");\r\n        require(_contributorId <= totalUserCount, \"No such user\");\r\n        // to be done\r\n        uint oldshares;\r\n        for(uint i=0; i<projects[projectId-1].contributors.length; i++){\r\n            if(projects[projectId-1].contributors[i] == _contributorId){\r\n                oldshares = projects[projectId-1].shares[i];\r\n                projects[projectId-1].shares[i]+=Newshares;\r\n                break;\r\n            }\r\n            if(i==projects[projectId-1].contributors.length-1){\r\n                require(false,\"No such Contributor in this project\");\r\n            }\r\n        }\r\n        emit sharesAllocated(oldshares, Newshares, projectId, _contributorId);\r\n    }\r\n    \r\n    // function createTask(uint256 _projectId, string memory _taskName, string memory _description) public {\r\n    //     require(bytes(_taskName).length>0,\"task name can not be an empty string\");\r\n    //     require(bytes(_description).length>0,\"name can not be an empty string\");\r\n    //     uint256 task = projects[_projectId].tasks++;\r\n    //     projects[_projectId].taskName[task] = _taskName;\r\n    //     projects[_projectId].taskDescription[task] = _description;\r\n    //     projects[_projectId].taskId[task] = task+1;\r\n    //     emit TaskCreated(task+1, _taskName);\r\n    // }\r\n    \r\n    \r\n}",
  "sourcePath": "D:/ide_builds/blockchain/dapps/ShareManager/ShareManager/contracts/maincontract.sol",
  "compiler": {
    "name": "solc",
    "version": "0.5.16+commit.9c3226ce.Emscripten.clang"
  },
  "schemaVersion": "3.3.4",
  "updatedAt": "2021-04-17T18:20:48.119Z",
  "networkType": "ethereum",
  "devdoc": {
    "methods": {}
  },
  "userdoc": {
    "methods": {}
  }
}