{
  "contractName": "X",
  "abi": [
    {
      "anonymous": false,
      "inputs": [
        {
          "indexed": false,
          "internalType": "uint256",
          "name": "_taskId",
          "type": "uint256"
        },
        {
          "indexed": false,
          "internalType": "string",
          "name": "_taskName",
          "type": "string"
        }
      ],
      "name": "TaskCreated",
      "type": "event"
    },
    {
      "anonymous": false,
      "inputs": [
        {
          "indexed": false,
          "internalType": "uint256",
          "name": "newContributor",
          "type": "uint256"
        },
        {
          "indexed": false,
          "internalType": "uint256",
          "name": "projectId",
          "type": "uint256"
        }
      ],
      "name": "contributorAdded",
      "type": "event"
    },
    {
      "anonymous": false,
      "inputs": [
        {
          "indexed": false,
          "internalType": "string",
          "name": "_name",
          "type": "string"
        }
      ],
      "name": "newProjectCreated",
      "type": "event"
    },
    {
      "anonymous": false,
      "inputs": [
        {
          "indexed": false,
          "internalType": "uint256",
          "name": "oldShares",
          "type": "uint256"
        },
        {
          "indexed": false,
          "internalType": "uint256",
          "name": "Newshares",
          "type": "uint256"
        },
        {
          "indexed": false,
          "internalType": "uint256",
          "name": "projectId",
          "type": "uint256"
        },
        {
          "indexed": false,
          "internalType": "uint256",
          "name": "contributorId",
          "type": "uint256"
        }
      ],
      "name": "sharesAllocated",
      "type": "event"
    },
    {
      "anonymous": false,
      "inputs": [
        {
          "indexed": false,
          "internalType": "string",
          "name": "_name",
          "type": "string"
        }
      ],
      "name": "userAdded",
      "type": "event"
    },
    {
      "constant": true,
      "inputs": [
        {
          "internalType": "uint256",
          "name": "",
          "type": "uint256"
        }
      ],
      "name": "projects",
      "outputs": [
        {
          "internalType": "uint256",
          "name": "pId",
          "type": "uint256"
        },
        {
          "internalType": "string",
          "name": "pName",
          "type": "string"
        },
        {
          "internalType": "string",
          "name": "description",
          "type": "string"
        },
        {
          "internalType": "uint256",
          "name": "founder",
          "type": "uint256"
        },
        {
          "internalType": "uint256",
          "name": "members",
          "type": "uint256"
        },
        {
          "internalType": "uint256",
          "name": "tasks",
          "type": "uint256"
        }
      ],
      "payable": false,
      "stateMutability": "view",
      "type": "function"
    },
    {
      "constant": true,
      "inputs": [],
      "name": "totalProjectCount",
      "outputs": [
        {
          "internalType": "uint256",
          "name": "",
          "type": "uint256"
        }
      ],
      "payable": false,
      "stateMutability": "view",
      "type": "function"
    },
    {
      "constant": true,
      "inputs": [],
      "name": "totalUserCount",
      "outputs": [
        {
          "internalType": "uint256",
          "name": "",
          "type": "uint256"
        }
      ],
      "payable": false,
      "stateMutability": "view",
      "type": "function"
    },
    {
      "constant": true,
      "inputs": [
        {
          "internalType": "address",
          "name": "",
          "type": "address"
        }
      ],
      "name": "userId",
      "outputs": [
        {
          "internalType": "uint256",
          "name": "",
          "type": "uint256"
        }
      ],
      "payable": false,
      "stateMutability": "view",
      "type": "function"
    },
    {
      "constant": true,
      "inputs": [
        {
          "internalType": "uint256",
          "name": "",
          "type": "uint256"
        }
      ],
      "name": "users",
      "outputs": [
        {
          "internalType": "uint256",
          "name": "cId",
          "type": "uint256"
        },
        {
          "internalType": "address",
          "name": "account",
          "type": "address"
        },
        {
          "internalType": "string",
          "name": "cName",
          "type": "string"
        }
      ],
      "payable": false,
      "stateMutability": "view",
      "type": "function"
    },
    {
      "constant": false,
      "inputs": [
        {
          "internalType": "string",
          "name": "_name",
          "type": "string"
        }
      ],
      "name": "adduseraccount",
      "outputs": [],
      "payable": false,
      "stateMutability": "nonpayable",
      "type": "function"
    },
    {
      "constant": false,
      "inputs": [
        {
          "internalType": "string",
          "name": "_name",
          "type": "string"
        },
        {
          "internalType": "string",
          "name": "description",
          "type": "string"
        }
      ],
      "name": "createProject",
      "outputs": [],
      "payable": false,
      "stateMutability": "nonpayable",
      "type": "function"
    },
    {
      "constant": false,
      "inputs": [
        {
          "internalType": "uint256",
          "name": "newContributor",
          "type": "uint256"
        },
        {
          "internalType": "uint256",
          "name": "projectId",
          "type": "uint256"
        },
        {
          "internalType": "uint256",
          "name": "_share",
          "type": "uint256"
        }
      ],
      "name": "addNewContributor",
      "outputs": [],
      "payable": false,
      "stateMutability": "nonpayable",
      "type": "function"
    },
    {
      "constant": false,
      "inputs": [
        {
          "internalType": "uint256",
          "name": "Newshares",
          "type": "uint256"
        },
        {
          "internalType": "uint256",
          "name": "projectId",
          "type": "uint256"
        },
        {
          "internalType": "uint256",
          "name": "_contributorId",
          "type": "uint256"
        }
      ],
      "name": "allocateSharesTo",
      "outputs": [],
      "payable": false,
      "stateMutability": "nonpayable",
      "type": "function"
    },
    {
      "constant": false,
      "inputs": [
        {
          "internalType": "uint256",
          "name": "_projectId",
          "type": "uint256"
        },
        {
          "internalType": "string",
          "name": "_taskName",
          "type": "string"
        },
        {
          "internalType": "string",
          "name": "_description",
          "type": "string"
        }
      ],
      "name": "createTask",
      "outputs": [],
      "payable": false,
      "stateMutability": "nonpayable",
      "type": "function"
    }
  ],
  "bytecode": "0x608060405234801561001057600080fd5b50611d18806100206000396000f3fe608060405234801561001057600080fd5b506004361061009e5760003560e01c80636bd06204116100665780636bd06204146103475780638524ac9814610499578063d0b897a9146105f5578063eb2cdd3f146106b0578063ee4be1e6146106f25761009e565b8063107046bd146100a3578063365b98b2146101d2578063376fe102146102b35780634bb86af01461030b5780636a11eeb314610329575b600080fd5b6100cf600480360360208110156100b957600080fd5b8101908080359060200190929190505050610734565b604051808781526020018060200180602001868152602001858152602001848152602001838103835288818151815260200191508051906020019080838360005b8381101561012b578082015181840152602081019050610110565b50505050905090810190601f1680156101585780820380516001836020036101000a031916815260200191505b50838103825287818151815260200191508051906020019080838360005b83811015610191578082015181840152602081019050610176565b50505050905090810190601f1680156101be5780820380516001836020036101000a031916815260200191505b509850505050505050505060405180910390f35b6101fe600480360360208110156101e857600080fd5b81019080803590602001909291905050506108ad565b604051808481526020018373ffffffffffffffffffffffffffffffffffffffff1673ffffffffffffffffffffffffffffffffffffffff16815260200180602001828103825283818151815260200191508051906020019080838360005b8381101561027657808201518184015260208101905061025b565b50505050905090810190601f1680156102a35780820380516001836020036101000a031916815260200191505b5094505050505060405180910390f35b6102f5600480360360208110156102c957600080fd5b81019080803573ffffffffffffffffffffffffffffffffffffffff16906020019092919050505061099c565b6040518082815260200191505060405180910390f35b6103136109b4565b6040518082815260200191505060405180910390f35b6103316109ba565b6040518082815260200191505060405180910390f35b6104976004803603604081101561035d57600080fd5b810190808035906020019064010000000081111561037a57600080fd5b82018360208201111561038c57600080fd5b803590602001918460018302840111640100000000831117156103ae57600080fd5b91908080601f016020809104026020016040519081016040528093929190818152602001838380828437600081840152601f19601f8201169050808301925050505050505091929192908035906020019064010000000081111561041157600080fd5b82018360208201111561042357600080fd5b8035906020019184600183028401116401000000008311171561044557600080fd5b91908080601f016020809104026020016040519081016040528093929190818152602001838380828437600081840152601f19601f8201169050808301925050505050505091929192905050506109c0565b005b6105f3600480360360608110156104af57600080fd5b8101908080359060200190929190803590602001906401000000008111156104d657600080fd5b8201836020820111156104e857600080fd5b8035906020019184600183028401116401000000008311171561050a57600080fd5b91908080601f016020809104026020016040519081016040528093929190818152602001838380828437600081840152601f19601f8201169050808301925050505050505091929192908035906020019064010000000081111561056d57600080fd5b82018360208201111561057f57600080fd5b803590602001918460018302840111640100000000831117156105a157600080fd5b91908080601f016020809104026020016040519081016040528093929190818152602001838380828437600081840152601f19601f820116905080830192505050505050509192919290505050610dc3565b005b6106ae6004803603602081101561060b57600080fd5b810190808035906020019064010000000081111561062857600080fd5b82018360208201111561063a57600080fd5b8035906020019184600183028401116401000000008311171561065c57600080fd5b91908080601f016020809104026020016040519081016040528093929190818152602001838380828437600081840152601f19601f820116905080830192505050505050509192919290505050611022565b005b6106f0600480360360608110156106c657600080fd5b81019080803590602001909291908035906020019092919080359060200190929190505050611394565b005b6107326004803603606081101561070857600080fd5b810190808035906020019092919080359060200190929190803590602001909291905050506115ba565b005b6002818154811061074157fe5b9060005260206000209060380201600091509050806000015490806001018054600181600116156101000203166002900480601f0160208091040260200160405190810160405280929190818152602001828054600181600116156101000203166002900480156107f35780601f106107c8576101008083540402835291602001916107f3565b820191906000526020600020905b8154815290600101906020018083116107d657829003601f168201915b505050505090806002018054600181600116156101000203166002900480601f0160208091040260200160405190810160405280929190818152602001828054600181600116156101000203166002900480156108915780601f1061086657610100808354040283529160200191610891565b820191906000526020600020905b81548152906001019060200180831161087457829003601f168201915b5050505050908060030154908060040154908060050154905086565b600381815481106108ba57fe5b90600052602060002090600402016000915090508060000154908060010160009054906101000a900473ffffffffffffffffffffffffffffffffffffffff1690806002018054600181600116156101000203166002900480601f0160208091040260200160405190810160405280929190818152602001828054600181600116156101000203166002900480156109925780601f1061096757610100808354040283529160200191610992565b820191906000526020600020905b81548152906001019060200180831161097557829003601f168201915b5050505050905083565b60046020528060005260406000206000915090505481565b60015481565b60005481565b6000825111610a1a576040517f08c379a0000000000000000000000000000000000000000000000000000000008152600401808060200182810382526027815260200180611c736027913960400191505060405180910390fd5b6000815111610a74576040517f08c379a0000000000000000000000000000000000000000000000000000000008152600401808060200182810382526026815260200180611c9a6026913960400191505060405180910390fd5b6000808154809291906001019190505550610a8d6118d5565b80608001805180919060010181525050600054816000018181525050828160200181905250818160400181905250600460003373ffffffffffffffffffffffffffffffffffffffff1673ffffffffffffffffffffffffffffffffffffffff16815260200190815260200160002054816060018181525050600460003373ffffffffffffffffffffffffffffffffffffffff1673ffffffffffffffffffffffffffffffffffffffff168152602001908152602001600020548160c001516001836080015103600a8110610b5b57fe5b60200201818152505060648160e001516001836080015103600a8110610b7d57fe5b60200201818152505060028190806001815401808255809150509060018203906000526020600020906038020160009091929091909150600082015181600001556020820151816001019080519060200190610bda92919061194d565b506040820151816002019080519060200190610bf792919061194d565b50606082015181600301556080820151816004015560a0820151816005015560c08201518160060190600a610c2d9291906119cd565b5060e08201518160100190600a610c459291906119cd565b5061010082015181601a0190600a610c5e9291906119cd565b506101208201518160240190600a610c77929190611a0d565b5061014082015181602e0190600a610c90929190611a0d565b5050505060036001600460003373ffffffffffffffffffffffffffffffffffffffff1673ffffffffffffffffffffffffffffffffffffffff168152602001908152602001600020540381548110610ce357fe5b9060005260206000209060040201600301816000015190806001815401808255809150509060018203906000526020600020016000909192909190915055507f135660877f6b7c202efbf95ba02c837bffc92023be5ebca226685fd7edfb9d06836040518080602001828103825283818151815260200191508051906020019080838360005b83811015610d84578082015181840152602081019050610d69565b50505050905090810190601f168015610db15780820380516001836020036101000a031916815260200191505b509250505060405180910390a1505050565b6000825111610e1d576040517f08c379a0000000000000000000000000000000000000000000000000000000008152600401808060200182810382526024815260200180611cc06024913960400191505060405180910390fd5b6000815111610e94576040517f08c379a000000000000000000000000000000000000000000000000000000000815260040180806020018281038252601f8152602001807f6e616d652063616e206e6f7420626520616e20656d70747920737472696e670081525060200191505060405180910390fd5b600060028481548110610ea357fe5b906000526020600020906038020160050160008154809291906001019190505590508260028581548110610ed357fe5b906000526020600020906038020160240182600a8110610eef57fe5b019080519060200190610f03929190611a60565b508160028581548110610f1257fe5b9060005260206000209060380201602e0182600a8110610f2e57fe5b019080519060200190610f42929190611a60565b506001810160028581548110610f5457fe5b9060005260206000209060380201601a0182600a8110610f7057fe5b01819055507fa5ed9e6226c584326505694539c95cb0e3238ae09bcda5a65c00bbfdab1c666260018201846040518083815260200180602001828103825283818151815260200191508051906020019080838360005b83811015610fe1578082015181840152602081019050610fc6565b50505050905090810190601f16801561100e5780820380516001836020036101000a031916815260200191505b50935050505060405180910390a150505050565b6000815111611099576040517f08c379a000000000000000000000000000000000000000000000000000000000815260040180806020018281038252601f8152602001807f6e616d652063616e206e6f7420626520616e20656d70747920737472696e670081525060200191505060405180910390fd5b6000600460003373ffffffffffffffffffffffffffffffffffffffff1673ffffffffffffffffffffffffffffffffffffffff168152602001908152602001600020541461114e576040517f08c379a000000000000000000000000000000000000000000000000000000000815260040180806020018281038252601c8152602001807f75736572206163636f756e7420616c726561647920657869737473210000000081525060200191505060405180910390fd5b600160008154809291906001019190505550600154600460003373ffffffffffffffffffffffffffffffffffffffff1673ffffffffffffffffffffffffffffffffffffffff168152602001908152602001600020819055506111ae611ae0565b81816040018190525033816020019073ffffffffffffffffffffffffffffffffffffffff16908173ffffffffffffffffffffffffffffffffffffffff1681525050600460003373ffffffffffffffffffffffffffffffffffffffff1673ffffffffffffffffffffffffffffffffffffffff16815260200190815260200160002054816000018181525050600381908060018154018082558091505090600182039060005260206000209060040201600090919290919091506000820151816000015560208201518160010160006101000a81548173ffffffffffffffffffffffffffffffffffffffff021916908373ffffffffffffffffffffffffffffffffffffffff16021790555060408201518160020190805190602001906112d392919061194d565b5060608201518160030190805190602001906112f0929190611b1e565b505050507fc92ebe1db27d1ca2d78f5625acd726ddc2999860ccf00ecfed1c3d5a7ca7e52e826040518080602001828103825283818151815260200191508051906020019080838360005b8381101561135657808201518184015260208101905061133b565b50505050905090810190601f1680156113835780820380516001836020036101000a031916815260200191505b509250505060405180910390a15050565b6000831180156113a657506001548311155b611418576040517f08c379a00000000000000000000000000000000000000000000000000000000081526004018080602001828103825260138152602001807f4e6f20737563682075736572206578697374210000000000000000000000000081525060200191505060405180910390fd5b6000811161148e576040517f08c379a000000000000000000000000000000000000000000000000000000000815260040180806020018281038252601e8152602001807f4120636f6e7472696275746f72206d757374206861766520736861726573000081525060200191505060405180910390fd5b6003600184038154811061149e57fe5b90600052602060002090600402016003018290806001815401808255809150509060018203906000526020600020016000909192909190915055506000600260018403815481106114eb57fe5b9060005260206000209060380201600401600081546001019190508190559050836002600185038154811061151c57fe5b906000526020600020906038020160060160018303600a811061153b57fe5b0181905550816002600185038154811061155157fe5b906000526020600020906038020160100160018303600a811061157057fe5b01819055507fc0d57bc3eadbca406fc7b62cb346eccfbfefd6c8585554c5ccda631329138de88484604051808381526020018281526020019250505060405180910390a150505050565b60008311611630576040517f08c379a000000000000000000000000000000000000000000000000000000000815260040180806020018281038252601e8152602001807f4120636f6e7472696275746f72206d757374206861766520736861726573000081525060200191505060405180910390fd5b6000548211156116a8576040517f08c379a000000000000000000000000000000000000000000000000000000000815260040180806020018281038252600f8152602001807f4e6f20737563682050726f6a656374000000000000000000000000000000000081525060200191505060405180910390fd5b600154811115611720576040517f08c379a000000000000000000000000000000000000000000000000000000000815260040180806020018281038252600c8152602001807f4e6f20737563682075736572000000000000000000000000000000000000000081525060200191505060405180910390fd5b600080600090505b6002600185038154811061173857fe5b906000526020600020905050600a81101561187f57826002600186038154811061175e57fe5b906000526020600020906038020160060182600a811061177a57fe5b015414156117f2576002600185038154811061179257fe5b906000526020600020906038020160100181600a81106117ae57fe5b0154915084600260018603815481106117c357fe5b906000526020600020906038020160100182600a81106117df57fe5b016000828254019250508190555061187f565b60016002600186038154811061180457fe5b906000526020600020905050600a03811415611872576000611871576040517f08c379a0000000000000000000000000000000000000000000000000000000008152600401808060200182810382526023815260200180611c506023913960400191505060405180910390fd5b5b8080600101915050611728565b507f9439daf66e61546087040ab9c69b8c87f99d09c4210f175f12ef196ccfcc4322818585856040518085815260200184815260200183815260200182815260200194505050505060405180910390a150505050565b604051806101600160405280600081526020016060815260200160608152602001600081526020016000815260200160008152602001611913611b6b565b8152602001611920611b6b565b815260200161192d611b6b565b815260200161193a611b8e565b8152602001611947611b8e565b81525090565b828054600181600116156101000203166002900490600052602060002090601f016020900481019282601f1061198e57805160ff19168380011785556119bc565b828001600101855582156119bc579182015b828111156119bb5782518255916020019190600101906119a0565b5b5090506119c99190611bb6565b5090565b82600a81019282156119fc579160200282015b828111156119fb5782518255916020019190600101906119e0565b5b509050611a099190611bb6565b5090565b82600a8101928215611a4f579160200282015b82811115611a4e578251829080519060200190611a3e92919061194d565b5091602001919060010190611a20565b5b509050611a5c9190611bdb565b5090565b828054600181600116156101000203166002900490600052602060002090601f016020900481019282601f10611aa157805160ff1916838001178555611acf565b82800160010185558215611acf579182015b82811115611ace578251825591602001919060010190611ab3565b5b509050611adc9190611bb6565b5090565b604051806080016040528060008152602001600073ffffffffffffffffffffffffffffffffffffffff16815260200160608152602001606081525090565b828054828255906000526020600020908101928215611b5a579160200282015b82811115611b59578251825591602001919060010190611b3e565b5b509050611b679190611bb6565b5090565b604051806101400160405280600a90602082028038833980820191505090505090565b604051806101400160405280600a905b6060815260200190600190039081611b9e5790505090565b611bd891905b80821115611bd4576000816000905550600101611bbc565b5090565b90565b611c0491905b80821115611c005760008181611bf79190611c07565b50600101611be1565b5090565b90565b50805460018160011615610100020316600290046000825580601f10611c2d5750611c4c565b601f016020900490600052602060002090810190611c4b9190611bb6565b5b5056fe4e6f207375636820436f6e7472696275746f7220696e20746869732070726f6a65637450726f6a656374206e616d652063616e206e6f7420626520616e20656d70747920737472696e676465736372697074696f6e2063616e206e6f7420626520616e20656d70747920737472696e677461736b206e616d652063616e206e6f7420626520616e20656d70747920737472696e67a265627a7a72315820625fc015d8cd688ec72659b353af06d652972ad323f24c6575fe9d71ae57090f64736f6c63430005100032",
  "source": "// SPDX-License-Identifier: MIT\r\npragma solidity ^0.5.16;\r\ncontract X{\r\n    struct Project{\r\n        uint256 pId;\r\n        string pName;\r\n        string description;\r\n        uint256 founder;\r\n        uint256 members;\r\n        uint256 tasks;\r\n        uint256[10] contributors;\r\n        uint256[10] shares;\r\n        uint256[10] taskId;\r\n        string[10] taskName;\r\n        string[10] taskDescription;\r\n    }\r\n    struct User{\r\n        uint256 cId;\r\n        address account;\r\n        string cName;\r\n        uint256[] projectsInvolved;\r\n    }\r\n\r\n    uint256 public totalProjectCount;\r\n    uint256 public totalUserCount;\r\n\r\n    Project[] public projects;\r\n    User[] public users;\r\n\r\n    mapping(address => uint256) public userId;\r\n\r\n    event newProjectCreated(string _name);\r\n    event userAdded(string _name);\r\n    event contributorAdded(uint256 newContributor, uint256 projectId);\r\n    event sharesAllocated(uint256 oldShares, uint256 Newshares, uint256 projectId, uint256 contributorId);\r\n    event TaskCreated(uint256 _taskId, string _taskName);\r\n\r\n    function adduseraccount(string memory _name) public {\r\n        require(bytes(_name).length>0,\"name can not be an empty string\");\r\n        require(userId[msg.sender]==0, \"user account already exists!\");\r\n        totalUserCount++;\r\n        userId[msg.sender] = totalUserCount;\r\n        User memory user;\r\n        user.cName = _name;\r\n        user.account = msg.sender;\r\n        user.cId = userId[msg.sender];\r\n        users.push(user);\r\n        emit userAdded(_name);\r\n    }\r\n\r\n    function createProject(string memory _name, string memory description) public {\r\n        require(bytes(_name).length>0,\"Project name can not be an empty string\");\r\n        require(bytes(description).length>0,\"description can not be an empty string\");\r\n        totalProjectCount++;\r\n        Project memory project;\r\n        project.members++;\r\n        project.pId = totalProjectCount;            //new ID\r\n        project.pName = _name;                      //name\r\n        project.description = description;          //description\r\n        project.founder = userId[msg.sender];       //founder\r\n        project.contributors[project.members-1] = userId[msg.sender];\r\n        project.shares[project.members-1] = 100;\r\n        projects.push(project);\r\n        users[userId[msg.sender]-1].projectsInvolved.push(project.pId);\r\n        emit newProjectCreated(_name);\r\n    }\r\n\r\n    function addNewContributor(uint256 newContributor, uint256 projectId, uint256 _share) public {\r\n        require(newContributor>0 &&  newContributor<=totalUserCount, \"No such user exist!\");\r\n        require(_share > 0, \"A contributor must have shares\");\r\n        users[newContributor-1].projectsInvolved.push(projectId);\r\n        uint members = ++projects[projectId-1].members;\r\n        projects[projectId-1].contributors[members-1] = newContributor;\r\n        projects[projectId-1].shares[members-1] = _share;                            //shares\r\n        emit contributorAdded(newContributor, projectId);\r\n    }\r\n\r\n    function allocateSharesTo(uint256 Newshares, uint256 projectId, uint256 _contributorId) public {\r\n        require(Newshares>0, \"A contributor must have shares\");\r\n        require(projectId <= totalProjectCount, \"No such Project\");\r\n        require(_contributorId <= totalUserCount, \"No such user\");\r\n        // to be done\r\n        uint oldshares;\r\n        for(uint i=0; i<projects[projectId-1].contributors.length; i++){\r\n            if(projects[projectId-1].contributors[i] == _contributorId){\r\n                oldshares = projects[projectId-1].shares[i];\r\n                projects[projectId-1].shares[i]+=Newshares;\r\n                break;\r\n            }\r\n            if(i==projects[projectId-1].contributors.length-1){\r\n                require(false,\"No such Contributor in this project\");\r\n            }\r\n        }\r\n        emit sharesAllocated(oldshares, Newshares, projectId, _contributorId);\r\n    }\r\n    \r\n    function createTask(uint256 _projectId, string memory _taskName, string memory _description) public {\r\n        require(bytes(_taskName).length>0,\"task name can not be an empty string\");\r\n        require(bytes(_description).length>0,\"name can not be an empty string\");\r\n        uint256 task = projects[_projectId].tasks++;\r\n        projects[_projectId].taskName[task] = _taskName;\r\n        projects[_projectId].taskDescription[task] = _description;\r\n        projects[_projectId].taskId[task] = task+1;\r\n        emit TaskCreated(task+1, _taskName);\r\n    }\r\n    \r\n    \r\n}",
  "sourcePath": "E:/projects/dapps/ShareManager/contracts/maincontract.sol",
  "compiler": {
    "name": "solc",
    "version": "0.5.16+commit.9c3226ce.Emscripten.clang"
  },
  "schemaVersion": "3.3.4",
  "updatedAt": "2021-04-13T07:43:09.719Z",
  "devdoc": {
    "methods": {}
  },
  "userdoc": {
    "methods": {}
  }
}